{
  "contractName": "Products",
  "abi": [
    {
      "constant": true,
      "inputs": [
        {
          "name": "",
          "type": "uint256"
        }
      ],
      "name": "products",
      "outputs": [
        {
          "name": "id",
          "type": "uint256"
        },
        {
          "name": "uniqueId",
          "type": "string"
        },
        {
          "name": "name",
          "type": "string"
        },
        {
          "name": "sku",
          "type": "string"
        },
        {
          "name": "owner",
          "type": "address"
        },
        {
          "name": "image",
          "type": "string"
        },
        {
          "name": "createdAt",
          "type": "string"
        },
        {
          "name": "purchased",
          "type": "bool"
        },
        {
          "name": "purchasedBy",
          "type": "string"
        }
      ],
      "payable": false,
      "stateMutability": "view",
      "type": "function",
      "signature": "0x7acc0b20"
    },
    {
      "constant": true,
      "inputs": [],
      "name": "productsCount",
      "outputs": [
        {
          "name": "",
          "type": "uint256"
        }
      ],
      "payable": false,
      "stateMutability": "view",
      "type": "function",
      "signature": "0xe0df7bb6"
    },
    {
      "anonymous": false,
      "inputs": [
        {
          "indexed": false,
          "name": "id",
          "type": "uint256"
        },
        {
          "indexed": false,
          "name": "uniqueId",
          "type": "string"
        },
        {
          "indexed": false,
          "name": "name",
          "type": "string"
        },
        {
          "indexed": false,
          "name": "sku",
          "type": "string"
        },
        {
          "indexed": false,
          "name": "owner",
          "type": "address"
        },
        {
          "indexed": false,
          "name": "image",
          "type": "string"
        },
        {
          "indexed": false,
          "name": "createdAt",
          "type": "string"
        },
        {
          "indexed": false,
          "name": "purchased",
          "type": "bool"
        },
        {
          "indexed": false,
          "name": "purchasedBy",
          "type": "string"
        }
      ],
      "name": "ProductCreated",
      "type": "event",
      "signature": "0xf031a58c6ed67ba69a7b74c389e9767d6611efa32df9d5f850d7f4bfff81d1dc"
    },
    {
      "anonymous": false,
      "inputs": [
        {
          "indexed": false,
          "name": "id",
          "type": "uint256"
        },
        {
          "indexed": false,
          "name": "uniqueId",
          "type": "string"
        },
        {
          "indexed": false,
          "name": "name",
          "type": "string"
        },
        {
          "indexed": false,
          "name": "sku",
          "type": "string"
        },
        {
          "indexed": false,
          "name": "owner",
          "type": "address"
        },
        {
          "indexed": false,
          "name": "image",
          "type": "string"
        },
        {
          "indexed": false,
          "name": "createdAt",
          "type": "string"
        },
        {
          "indexed": false,
          "name": "purchased",
          "type": "bool"
        },
        {
          "indexed": false,
          "name": "purchasedBy",
          "type": "string"
        }
      ],
      "name": "ProductPurchased",
      "type": "event",
      "signature": "0x6082f2302fa6eee1a0ba1a0ac91f8cd83674ccbdbb8061497bd4fa845de8df62"
    },
    {
      "constant": false,
      "inputs": [
        {
          "name": "_uniqueId",
          "type": "string"
        },
        {
          "name": "_name",
          "type": "string"
        },
        {
          "name": "_sku",
          "type": "string"
        },
        {
          "name": "_image",
          "type": "string"
        },
        {
          "name": "_createdAt",
          "type": "string"
        }
      ],
      "name": "createProduct",
      "outputs": [],
      "payable": false,
      "stateMutability": "nonpayable",
      "type": "function",
      "signature": "0x5b0769d6"
    },
    {
      "constant": false,
      "inputs": [
        {
          "name": "_id",
          "type": "uint256"
        },
        {
          "name": "_purchasedBy",
          "type": "string"
        }
      ],
      "name": "purchaseProduct",
      "outputs": [],
      "payable": false,
      "stateMutability": "nonpayable",
      "type": "function",
      "signature": "0x8af34246"
    },
    {
      "constant": true,
      "inputs": [],
      "name": "getProductsCount",
      "outputs": [
        {
          "name": "",
          "type": "uint256"
        }
      ],
      "payable": false,
      "stateMutability": "view",
      "type": "function",
      "signature": "0x5786fd40"
    },
    {
      "constant": true,
      "inputs": [
        {
          "name": "_owner",
          "type": "address"
        }
      ],
      "name": "getProductsCountByOwner",
      "outputs": [
        {
          "name": "",
          "type": "uint256"
        }
      ],
      "payable": false,
      "stateMutability": "view",
      "type": "function",
      "signature": "0xafb36fc8"
    },
    {
      "constant": true,
      "inputs": [
        {
          "name": "_id",
          "type": "uint256"
        }
      ],
      "name": "getProduct",
      "outputs": [
        {
          "name": "",
          "type": "uint256"
        },
        {
          "name": "",
          "type": "string"
        },
        {
          "name": "",
          "type": "string"
        },
        {
          "name": "",
          "type": "string"
        },
        {
          "name": "",
          "type": "address"
        },
        {
          "name": "",
          "type": "string"
        },
        {
          "name": "",
          "type": "string"
        },
        {
          "name": "",
          "type": "bool"
        },
        {
          "name": "",
          "type": "string"
        }
      ],
      "payable": false,
      "stateMutability": "view",
      "type": "function",
      "signature": "0xb9db15b4"
    },
    {
      "constant": true,
      "inputs": [
        {
          "name": "_owner",
          "type": "address"
        }
      ],
      "name": "getAllProductsByOwner",
      "outputs": [
        {
          "name": "",
          "type": "string[]"
        }
      ],
      "payable": false,
      "stateMutability": "view",
      "type": "function",
      "signature": "0x55442bae"
    },
    {
      "constant": true,
      "inputs": [],
      "name": "getAllProducts",
      "outputs": [
        {
          "name": "",
          "type": "string[]"
        }
      ],
      "payable": false,
      "stateMutability": "view",
      "type": "function",
      "signature": "0x02ee3a52"
    },
    {
      "constant": true,
      "inputs": [
        {
          "name": "_uniqueId",
          "type": "string"
        }
      ],
      "name": "getProductByUniqueId",
      "outputs": [
        {
          "name": "",
          "type": "uint256"
        },
        {
          "name": "",
          "type": "string"
        },
        {
          "name": "",
          "type": "string"
        },
        {
          "name": "",
          "type": "string"
        },
        {
          "name": "",
          "type": "address"
        },
        {
          "name": "",
          "type": "string"
        },
        {
          "name": "",
          "type": "string"
        },
        {
          "name": "",
          "type": "bool"
        },
        {
          "name": "",
          "type": "string"
        }
      ],
      "payable": false,
      "stateMutability": "view",
      "type": "function",
      "signature": "0x3adab9cb"
    }
  ],
  "bytecode": "0x60806040526000805534801561001457600080fd5b506127b3806100246000396000f3fe6080604052600436106100a4576000357c0100000000000000000000000000000000000000000000000000000000900463ffffffff16806302ee3a52146100a95780633adab9cb146100d457806355442bae146101195780635786fd40146101565780635b0769d6146101815780637acc0b20146101aa5780638af34246146101ef578063afb36fc814610218578063b9db15b414610255578063e0df7bb61461029a575b600080fd5b3480156100b557600080fd5b506100be6102c5565b6040516100cb91906121e1565b60405180910390f35b3480156100e057600080fd5b506100fb60048036036100f69190810190611d56565b6103f5565b604051610110999897969594939291906123d3565b60405180910390f35b34801561012557600080fd5b50610140600480360361013b9190810190611d2d565b6105e8565b60405161014d91906121e1565b60405180910390f35b34801561016257600080fd5b5061016b610796565b6040516101789190612303565b60405180910390f35b34801561018d57600080fd5b506101a860048036036101a39190810190611d97565b61079f565b005b3480156101b657600080fd5b506101d160048036036101cc9190810190611e86565b610b00565b6040516101e69998979695949392919061248a565b60405180910390f35b3480156101fb57600080fd5b5061021660048036036102119190810190611eaf565b610f0b565b005b34801561022457600080fd5b5061023f600480360361023a9190810190611d2d565b61161b565b60405161024c9190612303565b60405180910390f35b34801561026157600080fd5b5061027c60048036036102779190810190611e86565b6116be565b604051610291999897969594939291906123d3565b60405180910390f35b3480156102a657600080fd5b506102af611b9f565b6040516102bc9190612303565b60405180910390f35b6060806000546040519080825280602002602001820160405280156102fe57816020015b60608152602001906001900390816102e95790505b5090506000600190505b600054811115156103ed57600160008281526020019081526020016000206001018054600181600116156101000203166002900480601f0160208091040260200160405190810160405280929190818152602001828054600181600116156101000203166002900480156103bd5780601f10610392576101008083540402835291602001916103bd565b820191906000526020600020905b8154815290600101906020018083116103a057829003601f168201915b505050505082600183038151811015156103d357fe5b906020019060200201819052508080600101915050610308565b508091505090565b600060608060606000606080600060606000600190505b6000548111151561054e578a6040516020018082805190602001908083835b602083101515610450578051825260208201915060208101905060208303925061042b565b6001836020036101000a038019825116818451168082178552505050505050905001915050604051602081830303815290604052805190602001206001600083815260200190815260200160002060010160405160200180828054600181600116156101000203166002900480156104ff5780601f106104dd5761010080835404028352918201916104ff565b820191906000526020600020905b8154815290600101906020018083116104eb575b505091505060405160208183030381529060405280519060200120141561054157610529816116be565b995099509950995099509950995099509950506105db565b808060010191505061040c565b50600080600082925060206040519081016040528060008152509190602060405190810160405280600081525091906020604051908101604052806000815250919081915060206040519081016040528060008152509060206040519081016040528060008152509060206040519081016040528060008152509850985098509850985098509850985098505b9193959799909294969850565b6060806105f48361161b565b60405190808252806020026020018201604052801561062757816020015b60608152602001906001900390816106125790505b50905060008090506000600190505b6000548111151561078b578473ffffffffffffffffffffffffffffffffffffffff166001600083815260200190815260200160002060040160009054906101000a900473ffffffffffffffffffffffffffffffffffffffff1673ffffffffffffffffffffffffffffffffffffffff16141561077e57600160008281526020019081526020016000206001018054600181600116156101000203166002900480601f0160208091040260200160405190810160405280929190818152602001828054600181600116156101000203166002900480156107555780601f1061072a57610100808354040283529160200191610755565b820191906000526020600020905b81548152906001019060200180831161073857829003601f168201915b5050505050838381518110151561076857fe5b9060200190602002018190525081806001019250505b8080600101915050610636565b508192505050919050565b60008054905090565b600085511115156107e5576040517f08c379a00000000000000000000000000000000000000000000000000000000081526004016107dc90612283565b60405180910390fd5b6000845111151561082b576040517f08c379a0000000000000000000000000000000000000000000000000000000008152600401610822906122a3565b60405180910390fd5b60008351111515610871576040517f08c379a0000000000000000000000000000000000000000000000000000000008152600401610868906122e3565b60405180910390fd5b600082511115156108b7576040517f08c379a00000000000000000000000000000000000000000000000000000000081526004016108ae90612243565b60405180910390fd5b600081511115156108fd576040517f08c379a00000000000000000000000000000000000000000000000000000000081526004016108f490612223565b60405180910390fd5b60008081548092919060010191905055506101206040519081016040528060005481526020018681526020018581526020018481526020013373ffffffffffffffffffffffffffffffffffffffff168152602001838152602001828152602001600015158152602001602060405190810160405280600081525081525060016000805481526020019081526020016000206000820151816000015560208201518160010190805190602001906109b4929190611ba5565b5060408201518160020190805190602001906109d1929190611ba5565b5060608201518160030190805190602001906109ee929190611ba5565b5060808201518160040160006101000a81548173ffffffffffffffffffffffffffffffffffffffff021916908373ffffffffffffffffffffffffffffffffffffffff16021790555060a0820151816005019080519060200190610a52929190611ba5565b5060c0820151816006019080519060200190610a6f929190611ba5565b5060e08201518160070160006101000a81548160ff021916908315150217905550610100820151816008019080519060200190610aad929190611ba5565b509050507ff031a58c6ed67ba69a7b74c389e9767d6611efa32df9d5f850d7f4bfff81d1dc6000548686863387876000604051610af198979695949392919061231e565b60405180910390a15050505050565b6001602052806000526040600020600091509050806000015490806001018054600181600116156101000203166002900480601f016020809104026020016040519081016040528092919081815260200182805460018160011615610100020316600290048015610bb25780601f10610b8757610100808354040283529160200191610bb2565b820191906000526020600020905b815481529060010190602001808311610b9557829003601f168201915b505050505090806002018054600181600116156101000203166002900480601f016020809104026020016040519081016040528092919081815260200182805460018160011615610100020316600290048015610c505780601f10610c2557610100808354040283529160200191610c50565b820191906000526020600020905b815481529060010190602001808311610c3357829003601f168201915b505050505090806003018054600181600116156101000203166002900480601f016020809104026020016040519081016040528092919081815260200182805460018160011615610100020316600290048015610cee5780601f10610cc357610100808354040283529160200191610cee565b820191906000526020600020905b815481529060010190602001808311610cd157829003601f168201915b5050505050908060040160009054906101000a900473ffffffffffffffffffffffffffffffffffffffff1690806005018054600181600116156101000203166002900480601f016020809104026020016040519081016040528092919081815260200182805460018160011615610100020316600290048015610db25780601f10610d8757610100808354040283529160200191610db2565b820191906000526020600020905b815481529060010190602001808311610d9557829003601f168201915b505050505090806006018054600181600116156101000203166002900480601f016020809104026020016040519081016040528092919081815260200182805460018160011615610100020316600290048015610e505780601f10610e2557610100808354040283529160200191610e50565b820191906000526020600020905b815481529060010190602001808311610e3357829003601f168201915b5050505050908060070160009054906101000a900460ff1690806008018054600181600116156101000203166002900480601f016020809104026020016040519081016040528092919081815260200182805460018160011615610100020316600290048015610f015780601f10610ed657610100808354040283529160200191610f01565b820191906000526020600020905b815481529060010190602001808311610ee457829003601f168201915b5050505050905089565b610f13611c25565b60016000848152602001908152602001600020610120604051908101604052908160008201548152602001600182018054600181600116156101000203166002900480601f016020809104026020016040519081016040528092919081815260200182805460018160011615610100020316600290048015610fd65780601f10610fab57610100808354040283529160200191610fd6565b820191906000526020600020905b815481529060010190602001808311610fb957829003601f168201915b50505050508152602001600282018054600181600116156101000203166002900480601f0160208091040260200160405190810160405280929190818152602001828054600181600116156101000203166002900480156110785780601f1061104d57610100808354040283529160200191611078565b820191906000526020600020905b81548152906001019060200180831161105b57829003601f168201915b50505050508152602001600382018054600181600116156101000203166002900480601f01602080910402602001604051908101604052809291908181526020018280546001816001161561010002031660029004801561111a5780601f106110ef5761010080835404028352916020019161111a565b820191906000526020600020905b8154815290600101906020018083116110fd57829003601f168201915b505050505081526020016004820160009054906101000a900473ffffffffffffffffffffffffffffffffffffffff1673ffffffffffffffffffffffffffffffffffffffff1673ffffffffffffffffffffffffffffffffffffffff168152602001600582018054600181600116156101000203166002900480601f0160208091040260200160405190810160405280929190818152602001828054600181600116156101000203166002900480156112125780601f106111e757610100808354040283529160200191611212565b820191906000526020600020905b8154815290600101906020018083116111f557829003601f168201915b50505050508152602001600682018054600181600116156101000203166002900480601f0160208091040260200160405190810160405280929190818152602001828054600181600116156101000203166002900480156112b45780601f10611289576101008083540402835291602001916112b4565b820191906000526020600020905b81548152906001019060200180831161129757829003601f168201915b505050505081526020016007820160009054906101000a900460ff16151515158152602001600882018054600181600116156101000203166002900480601f0160208091040260200160405190810160405280929190818152602001828054600181600116156101000203166002900480156113715780601f1061134657610100808354040283529160200191611371565b820191906000526020600020905b81548152906001019060200180831161135457829003601f168201915b5050505050815250509050600081600001511180156113965750600054816000015111155b15156113d7576040517f08c379a00000000000000000000000000000000000000000000000000000000081526004016113ce90612203565b60405180910390fd5b8060e0015115151561141e576040517f08c379a000000000000000000000000000000000000000000000000000000000815260040161141590612263565b60405180910390fd5b60008251111515611464576040517f08c379a000000000000000000000000000000000000000000000000000000000815260040161145b906122c3565b60405180910390fd5b60018160e00190151590811515815250508181610100018190525080600160008581526020019081526020016000206000820151816000015560208201518160010190805190602001906114b9929190611ba5565b5060408201518160020190805190602001906114d6929190611ba5565b5060608201518160030190805190602001906114f3929190611ba5565b5060808201518160040160006101000a81548173ffffffffffffffffffffffffffffffffffffffff021916908373ffffffffffffffffffffffffffffffffffffffff16021790555060a0820151816005019080519060200190611557929190611ba5565b5060c0820151816006019080519060200190611574929190611ba5565b5060e08201518160070160006101000a81548160ff0219169083151502179055506101008201518160080190805190602001906115b2929190611ba5565b509050507f6082f2302fa6eee1a0ba1a0ac91f8cd83674ccbdbb8061497bd4fa845de8df628382602001518360400151846060015185608001518660a001518760c0015160018a60405161160e99989796959493929190612541565b60405180910390a1505050565b600080600090506000600190505b600054811115156116b4578373ffffffffffffffffffffffffffffffffffffffff166001600083815260200190815260200160002060040160009054906101000a900473ffffffffffffffffffffffffffffffffffffffff1673ffffffffffffffffffffffffffffffffffffffff1614156116a75781806001019250505b8080600101915050611629565b5080915050919050565b600060608060606000606080600060606116d6611c25565b600160008c8152602001908152602001600020610120604051908101604052908160008201548152602001600182018054600181600116156101000203166002900480601f0160208091040260200160405190810160405280929190818152602001828054600181600116156101000203166002900480156117995780601f1061176e57610100808354040283529160200191611799565b820191906000526020600020905b81548152906001019060200180831161177c57829003601f168201915b50505050508152602001600282018054600181600116156101000203166002900480601f01602080910402602001604051908101604052809291908181526020018280546001816001161561010002031660029004801561183b5780601f106118105761010080835404028352916020019161183b565b820191906000526020600020905b81548152906001019060200180831161181e57829003601f168201915b50505050508152602001600382018054600181600116156101000203166002900480601f0160208091040260200160405190810160405280929190818152602001828054600181600116156101000203166002900480156118dd5780601f106118b2576101008083540402835291602001916118dd565b820191906000526020600020905b8154815290600101906020018083116118c057829003601f168201915b505050505081526020016004820160009054906101000a900473ffffffffffffffffffffffffffffffffffffffff1673ffffffffffffffffffffffffffffffffffffffff1673ffffffffffffffffffffffffffffffffffffffff168152602001600582018054600181600116156101000203166002900480601f0160208091040260200160405190810160405280929190818152602001828054600181600116156101000203166002900480156119d55780601f106119aa576101008083540402835291602001916119d5565b820191906000526020600020905b8154815290600101906020018083116119b857829003601f168201915b50505050508152602001600682018054600181600116156101000203166002900480601f016020809104026020016040519081016040528092919081815260200182805460018160011615610100020316600290048015611a775780601f10611a4c57610100808354040283529160200191611a77565b820191906000526020600020905b815481529060010190602001808311611a5a57829003601f168201915b505050505081526020016007820160009054906101000a900460ff16151515158152602001600882018054600181600116156101000203166002900480601f016020809104026020016040519081016040528092919081815260200182805460018160011615610100020316600290048015611b345780601f10611b0957610100808354040283529160200191611b34565b820191906000526020600020905b815481529060010190602001808311611b1757829003601f168201915b5050505050815250509050806000015181602001518260400151836060015184608001518560a001518660c001518760e00151886101000151879750869650859550839350829250809050995099509950995099509950995099509950509193959799909294969850565b60005481565b828054600181600116156101000203166002900490600052602060002090601f016020900481019282601f10611be657805160ff1916838001178555611c14565b82800160010185558215611c14579182015b82811115611c13578251825591602001919060010190611bf8565b5b509050611c219190611c8a565b5090565b6101206040519081016040528060008152602001606081526020016060815260200160608152602001600073ffffffffffffffffffffffffffffffffffffffff1681526020016060815260200160608152602001600015158152602001606081525090565b611cac91905b80821115611ca8576000816000905550600101611c90565b5090565b90565b6000611cbb82356126d4565b905092915050565b600082601f8301121515611cd657600080fd5b8135611ce9611ce482612625565b6125f8565b91508082526020830160208301858383011115611d0557600080fd5b611d10838284612726565b50505092915050565b6000611d2582356126e6565b905092915050565b600060208284031215611d3f57600080fd5b6000611d4d84828501611caf565b91505092915050565b600060208284031215611d6857600080fd5b600082013567ffffffffffffffff811115611d8257600080fd5b611d8e84828501611cc3565b91505092915050565b600080600080600060a08688031215611daf57600080fd5b600086013567ffffffffffffffff811115611dc957600080fd5b611dd588828901611cc3565b955050602086013567ffffffffffffffff811115611df257600080fd5b611dfe88828901611cc3565b945050604086013567ffffffffffffffff811115611e1b57600080fd5b611e2788828901611cc3565b935050606086013567ffffffffffffffff811115611e4457600080fd5b611e5088828901611cc3565b925050608086013567ffffffffffffffff811115611e6d57600080fd5b611e7988828901611cc3565b9150509295509295909350565b600060208284031215611e9857600080fd5b6000611ea684828501611d19565b91505092915050565b60008060408385031215611ec257600080fd5b6000611ed085828601611d19565b925050602083013567ffffffffffffffff811115611eed57600080fd5b611ef985828601611cc3565b9150509250929050565b611f0c816126f0565b82525050565b611f1b8161268c565b82525050565b6000611f2c8261265e565b80845260208401935083602082028501611f4585612651565b60005b84811015611f7e578383038852611f60838351611fd4565b9250611f6b8261267f565b9150602088019750600181019050611f48565b508196508694505050505092915050565b611f988161269e565b82525050565b6000611fa982612674565b808452611fbd816020860160208601612735565b611fc681612768565b602085010191505092915050565b6000611fdf82612669565b808452611ff3816020860160208601612735565b611ffc81612768565b602085010191505092915050565b6000601682527f50726f6475637420646f6573206e6f74206578697374000000000000000000006020830152604082019050919050565b6000601682527f43726561746564204174206973207265717569726564000000000000000000006020830152604082019050919050565b6000601182527f496d6167652069732072657175697265640000000000000000000000000000006020830152604082019050919050565b6000601c82527f50726f6475637420697320616c726561647920707572636861736564000000006020830152604082019050919050565b6000808252602082019050919050565b6000601582527f556e6971756520494420697320726571756972656400000000000000000000006020830152604082019050919050565b6000601082527f4e616d65206973207265717569726564000000000000000000000000000000006020830152604082019050919050565b6000601882527f50757263686173656420427920697320726571756972656400000000000000006020830152604082019050919050565b6000600f82527f534b5520697320726571756972656400000000000000000000000000000000006020830152604082019050919050565b6121db816126ca565b82525050565b600060208201905081810360008301526121fb8184611f21565b905092915050565b6000602082019050818103600083015261221c8161200a565b9050919050565b6000602082019050818103600083015261223c81612041565b9050919050565b6000602082019050818103600083015261225c81612078565b9050919050565b6000602082019050818103600083015261227c816120af565b9050919050565b6000602082019050818103600083015261229c816120f6565b9050919050565b600060208201905081810360008301526122bc8161212d565b9050919050565b600060208201905081810360008301526122dc81612164565b9050919050565b600060208201905081810360008301526122fc8161219b565b9050919050565b600060208201905061231860008301846121d2565b92915050565b600061012082019050612334600083018b6121d2565b8181036020830152612346818a611f9e565b9050818103604083015261235a8189611f9e565b9050818103606083015261236e8188611f9e565b905061237d6080830187611f03565b81810360a083015261238f8186611f9e565b905081810360c08301526123a38185611f9e565b90506123b260e0830184611f8f565b8181036101008301526123c4816120e6565b90509998505050505050505050565b6000610120820190506123e9600083018c6121d2565b81810360208301526123fb818b611f9e565b9050818103604083015261240f818a611f9e565b905081810360608301526124238189611f9e565b90506124326080830188611f12565b81810360a08301526124448187611f9e565b905081810360c08301526124588186611f9e565b905061246760e0830185611f8f565b81810361010083015261247a8184611f9e565b90509a9950505050505050505050565b6000610120820190506124a0600083018c6121d2565b81810360208301526124b2818b611fd4565b905081810360408301526124c6818a611fd4565b905081810360608301526124da8189611fd4565b90506124e96080830188611f12565b81810360a08301526124fb8187611fd4565b905081810360c083015261250f8186611fd4565b905061251e60e0830185611f8f565b8181036101008301526125318184611fd4565b90509a9950505050505050505050565b600061012082019050612557600083018c6121d2565b8181036020830152612569818b611fd4565b9050818103604083015261257d818a611fd4565b905081810360608301526125918189611fd4565b90506125a06080830188611f12565b81810360a08301526125b28187611fd4565b905081810360c08301526125c68186611fd4565b90506125d560e0830185611f8f565b8181036101008301526125e88184611f9e565b90509a9950505050505050505050565b6000604051905081810181811067ffffffffffffffff8211171561261b57600080fd5b8060405250919050565b600067ffffffffffffffff82111561263c57600080fd5b601f19601f8301169050602081019050919050565b6000602082019050919050565b600081519050919050565b600081519050919050565b600081519050919050565b6000602082019050919050565b6000612697826126aa565b9050919050565b60008115159050919050565b600073ffffffffffffffffffffffffffffffffffffffff82169050919050565b6000819050919050565b60006126df826126aa565b9050919050565b6000819050919050565b60006126fb82612702565b9050919050565b600061270d82612714565b9050919050565b600061271f826126aa565b9050919050565b82818337600083830152505050565b60005b83811015612753578082015181840152602081019050612738565b83811115612762576000848401525b50505050565b6000601f19601f830116905091905056fea265627a7a72305820c16806ff27a53773bd5103c41f1b08ad72c4b3743cc2ae672d54b57a76f69a666c6578706572696d656e74616cf50037",
  "source": "pragma solidity ^0.5.0;\r\npragma experimental ABIEncoderV2;\r\n\r\ncontract Products {\r\n    uint public productsCount = 0;\r\n\r\n    struct Product {\r\n        uint id;\r\n        string uniqueId;\r\n        string name;\r\n        string sku;\r\n        address owner;\r\n        string image;\r\n        string createdAt;\r\n        bool purchased;\r\n        string purchasedBy;\r\n    }\r\n\r\n    mapping(uint => Product) public products;\r\n\r\n    event ProductCreated(\r\n        uint id,\r\n        string uniqueId,\r\n        string name,\r\n        string sku,\r\n        address owner,\r\n        string image,\r\n        string createdAt,\r\n        bool purchased,\r\n        string purchasedBy\r\n    );\r\n\r\n    event ProductPurchased(\r\n        uint id,\r\n        string uniqueId,\r\n        string name,\r\n        string sku,\r\n        address owner,\r\n        string image,\r\n        string createdAt,\r\n        bool purchased,\r\n        string purchasedBy\r\n    );\r\n\r\n    function createProduct(\r\n        string memory _uniqueId,\r\n        string memory _name,\r\n        string memory _sku,\r\n        string memory _image,\r\n        string memory _createdAt\r\n    ) public {\r\n        require(bytes(_uniqueId).length > 0, \"Unique ID is required\");\r\n        require(bytes(_name).length > 0, \"Name is required\");\r\n        require(bytes(_sku).length > 0, \"SKU is required\");\r\n        require(bytes(_image).length > 0, \"Image is required\");\r\n        require(bytes(_createdAt).length > 0, \"Created At is required\");\r\n\r\n        productsCount++;\r\n        products[productsCount] = Product(\r\n            productsCount,\r\n            _uniqueId,\r\n            _name,\r\n            _sku,\r\n            msg.sender,\r\n            _image,\r\n            _createdAt,\r\n            false,\r\n            \"\"\r\n        );\r\n        emit ProductCreated(\r\n            productsCount,\r\n            _uniqueId,\r\n            _name,\r\n            _sku,\r\n            msg.sender,\r\n            _image,\r\n            _createdAt,\r\n            false,\r\n            \"\"\r\n        );\r\n    }\r\n\r\n    function purchaseProduct(uint _id, string memory _purchasedBy) public {\r\n        Product memory _product = products[_id];\r\n        require(\r\n            _product.id > 0 && _product.id <= productsCount,\r\n            \"Product does not exist\"\r\n        );\r\n        require(!_product.purchased, \"Product is already purchased\");\r\n\r\n        require(bytes(_purchasedBy).length > 0, \"Purchased By is required\");\r\n\r\n        _product.purchased = true;\r\n        _product.purchasedBy = _purchasedBy;\r\n        products[_id] = _product;\r\n\r\n        emit ProductPurchased(\r\n            _id,\r\n            _product.uniqueId,\r\n            _product.name,\r\n            _product.sku,\r\n            _product.owner,\r\n            _product.image,\r\n            _product.createdAt,\r\n            true,\r\n            _purchasedBy\r\n        );\r\n    }\r\n\r\n    function getProductsCount() public view returns (uint) {\r\n        return productsCount;\r\n    }\r\n\r\n    function getProductsCountByOwner(\r\n        address _owner\r\n    ) public view returns (uint) {\r\n        uint counter = 0;\r\n        for (uint i = 1; i <= productsCount; i++) {\r\n            if (products[i].owner == _owner) {\r\n                counter++;\r\n            }\r\n        }\r\n        return counter;\r\n    }\r\n\r\n    function getProduct(\r\n        uint _id\r\n    )\r\n        public\r\n        view\r\n        returns (\r\n            uint,\r\n            string memory,\r\n            string memory,\r\n            string memory,\r\n            address,\r\n            string memory,\r\n            string memory,\r\n            bool,\r\n            string memory\r\n        )\r\n    {\r\n        Product memory _product = products[_id];\r\n        return (\r\n            _product.id,\r\n            _product.uniqueId,\r\n            _product.name,\r\n            _product.sku,\r\n            _product.owner,\r\n            _product.image,\r\n            _product.createdAt,\r\n            _product.purchased,\r\n            _product.purchasedBy\r\n        );\r\n    }\r\n\r\n    function getAllProductsByOwner(\r\n        address _owner\r\n    ) public view returns (string[] memory) {\r\n        // Return an array of product Unique IDs\r\n        string[] memory productIds = new string[](\r\n            getProductsCountByOwner(_owner)\r\n        );\r\n        uint counter = 0;\r\n        for (uint i = 1; i <= productsCount; i++) {\r\n            if (products[i].owner == _owner) {\r\n                productIds[counter] = products[i].uniqueId;\r\n                counter++;\r\n            }\r\n        }\r\n        return productIds;\r\n    }\r\n\r\n    function getAllProducts() public view returns (string[] memory) {\r\n        string[] memory productIds = new string[](productsCount);\r\n        for (uint i = 1; i <= productsCount; i++) {\r\n            productIds[i - 1] = products[i].uniqueId;\r\n        }\r\n        return productIds;\r\n    }\r\n\r\n    // Get Product by Unique ID\r\n    function getProductByUniqueId(\r\n        string memory _uniqueId\r\n    )\r\n        public\r\n        view\r\n        returns (\r\n            uint,\r\n            string memory,\r\n            string memory,\r\n            string memory,\r\n            address,\r\n            string memory,\r\n            string memory,\r\n            bool,\r\n            string memory\r\n        )\r\n    {\r\n        for (uint i = 1; i <= productsCount; i++) {\r\n            if (\r\n                keccak256(abi.encodePacked(products[i].uniqueId)) ==\r\n                keccak256(abi.encodePacked(_uniqueId))\r\n            ) {\r\n                return getProduct(i);\r\n            }\r\n        }\r\n        return (0, \"\", \"\", \"\", address(0), \"\", \"\", false, \"\");\r\n    }\r\n}\r\n",
  "sourcePath": "F:/FYP/Prove It Block/prove-it-block/contracts/Products.sol",
  "compiler": {
    "name": "solc",
    "version": "0.5.0+commit.1d4f565a.Emscripten.clang"
  },
  "schemaVersion": "3.0.1",
  "updatedAt": "2024-05-04T22:23:36.474Z",
  "devdoc": {
    "methods": {}
  },
  "userdoc": {
    "methods": {}
  }
}